{
    "_format": "hh-sol-artifact-1",
    "contractName": "Mint",
    "sourceName": "contracts/MintReward.sol",
    "abi": [
        {
            "inputs": [
                {
                    "internalType": "address",
                    "name": "NFTContractAddress",
                    "type": "address"
                },
                {
                    "internalType": "uint256",
                    "name": "cap",
                    "type": "uint256"
                }
            ],
            "stateMutability": "nonpayable",
            "type": "constructor"
        },
        {
            "anonymous": false,
            "inputs": [
                {
                    "indexed": true,
                    "internalType": "address",
                    "name": "owner",
                    "type": "address"
                },
                {
                    "indexed": true,
                    "internalType": "address",
                    "name": "spender",
                    "type": "address"
                },
                {
                    "indexed": false,
                    "internalType": "uint256",
                    "name": "value",
                    "type": "uint256"
                }
            ],
            "name": "Approval",
            "type": "event"
        },
        {
            "anonymous": false,
            "inputs": [
                {
                    "indexed": true,
                    "internalType": "address",
                    "name": "previousOwner",
                    "type": "address"
                },
                {
                    "indexed": true,
                    "internalType": "address",
                    "name": "newOwner",
                    "type": "address"
                }
            ],
            "name": "OwnershipTransferred",
            "type": "event"
        },
        {
            "anonymous": false,
            "inputs": [
                {
                    "indexed": true,
                    "internalType": "address",
                    "name": "from",
                    "type": "address"
                },
                {
                    "indexed": true,
                    "internalType": "address",
                    "name": "to",
                    "type": "address"
                },
                {
                    "indexed": false,
                    "internalType": "uint256",
                    "name": "value",
                    "type": "uint256"
                }
            ],
            "name": "Transfer",
            "type": "event"
        },
        {
            "inputs": [
                {
                    "internalType": "address",
                    "name": "owner",
                    "type": "address"
                },
                {
                    "internalType": "address",
                    "name": "spender",
                    "type": "address"
                }
            ],
            "name": "allowance",
            "outputs": [
                {
                    "internalType": "uint256",
                    "name": "",
                    "type": "uint256"
                }
            ],
            "stateMutability": "view",
            "type": "function"
        },
        {
            "inputs": [
                {
                    "internalType": "address",
                    "name": "spender",
                    "type": "address"
                },
                {
                    "internalType": "uint256",
                    "name": "amount",
                    "type": "uint256"
                }
            ],
            "name": "approve",
            "outputs": [
                {
                    "internalType": "bool",
                    "name": "",
                    "type": "bool"
                }
            ],
            "stateMutability": "nonpayable",
            "type": "function"
        },
        {
            "inputs": [
                {
                    "internalType": "address",
                    "name": "account",
                    "type": "address"
                }
            ],
            "name": "balanceOf",
            "outputs": [
                {
                    "internalType": "uint256",
                    "name": "",
                    "type": "uint256"
                }
            ],
            "stateMutability": "view",
            "type": "function"
        },
        {
            "inputs": [],
            "name": "cap",
            "outputs": [
                {
                    "internalType": "uint256",
                    "name": "",
                    "type": "uint256"
                }
            ],
            "stateMutability": "view",
            "type": "function"
        },
        {
            "inputs": [
                {
                    "internalType": "uint256",
                    "name": "newReward",
                    "type": "uint256"
                }
            ],
            "name": "changeReward",
            "outputs": [],
            "stateMutability": "nonpayable",
            "type": "function"
        },
        {
            "inputs": [],
            "name": "currentSupply",
            "outputs": [
                {
                    "internalType": "uint256",
                    "name": "",
                    "type": "uint256"
                }
            ],
            "stateMutability": "view",
            "type": "function"
        },
        {
            "inputs": [],
            "name": "decimals",
            "outputs": [
                {
                    "internalType": "uint8",
                    "name": "",
                    "type": "uint8"
                }
            ],
            "stateMutability": "view",
            "type": "function"
        },
        {
            "inputs": [
                {
                    "internalType": "address",
                    "name": "spender",
                    "type": "address"
                },
                {
                    "internalType": "uint256",
                    "name": "subtractedValue",
                    "type": "uint256"
                }
            ],
            "name": "decreaseAllowance",
            "outputs": [
                {
                    "internalType": "bool",
                    "name": "",
                    "type": "bool"
                }
            ],
            "stateMutability": "nonpayable",
            "type": "function"
        },
        {
            "inputs": [],
            "name": "getCurrentCap",
            "outputs": [
                {
                    "internalType": "uint256",
                    "name": "",
                    "type": "uint256"
                }
            ],
            "stateMutability": "view",
            "type": "function"
        },
        {
            "inputs": [
                {
                    "internalType": "address",
                    "name": "spender",
                    "type": "address"
                },
                {
                    "internalType": "uint256",
                    "name": "addedValue",
                    "type": "uint256"
                }
            ],
            "name": "increaseAllowance",
            "outputs": [
                {
                    "internalType": "bool",
                    "name": "",
                    "type": "bool"
                }
            ],
            "stateMutability": "nonpayable",
            "type": "function"
        },
        {
            "inputs": [
                {
                    "internalType": "address",
                    "name": "user",
                    "type": "address"
                },
                {
                    "internalType": "string",
                    "name": "id",
                    "type": "string"
                },
                {
                    "internalType": "string",
                    "name": "text",
                    "type": "string"
                }
            ],
            "name": "mintAndReward",
            "outputs": [],
            "stateMutability": "nonpayable",
            "type": "function"
        },
        {
            "inputs": [],
            "name": "myNFT",
            "outputs": [
                {
                    "internalType": "contract ULTNFT",
                    "name": "",
                    "type": "address"
                }
            ],
            "stateMutability": "view",
            "type": "function"
        },
        {
            "inputs": [],
            "name": "name",
            "outputs": [
                {
                    "internalType": "string",
                    "name": "",
                    "type": "string"
                }
            ],
            "stateMutability": "view",
            "type": "function"
        },
        {
            "inputs": [],
            "name": "owner",
            "outputs": [
                {
                    "internalType": "address",
                    "name": "",
                    "type": "address"
                }
            ],
            "stateMutability": "view",
            "type": "function"
        },
        {
            "inputs": [
                {
                    "internalType": "string",
                    "name": "",
                    "type": "string"
                }
            ],
            "name": "qIdToNumAnswers",
            "outputs": [
                {
                    "internalType": "uint64",
                    "name": "",
                    "type": "uint64"
                }
            ],
            "stateMutability": "view",
            "type": "function"
        },
        {
            "inputs": [],
            "name": "renounceOwnership",
            "outputs": [],
            "stateMutability": "nonpayable",
            "type": "function"
        },
        {
            "inputs": [],
            "name": "symbol",
            "outputs": [
                {
                    "internalType": "string",
                    "name": "",
                    "type": "string"
                }
            ],
            "stateMutability": "view",
            "type": "function"
        },
        {
            "inputs": [],
            "name": "totalSupply",
            "outputs": [
                {
                    "internalType": "uint256",
                    "name": "",
                    "type": "uint256"
                }
            ],
            "stateMutability": "view",
            "type": "function"
        },
        {
            "inputs": [
                {
                    "internalType": "address",
                    "name": "to",
                    "type": "address"
                },
                {
                    "internalType": "uint256",
                    "name": "amount",
                    "type": "uint256"
                }
            ],
            "name": "transfer",
            "outputs": [
                {
                    "internalType": "bool",
                    "name": "",
                    "type": "bool"
                }
            ],
            "stateMutability": "nonpayable",
            "type": "function"
        },
        {
            "inputs": [
                {
                    "internalType": "address",
                    "name": "from",
                    "type": "address"
                },
                {
                    "internalType": "address",
                    "name": "to",
                    "type": "address"
                },
                {
                    "internalType": "uint256",
                    "name": "amount",
                    "type": "uint256"
                }
            ],
            "name": "transferFrom",
            "outputs": [
                {
                    "internalType": "bool",
                    "name": "",
                    "type": "bool"
                }
            ],
            "stateMutability": "nonpayable",
            "type": "function"
        },
        {
            "inputs": [
                {
                    "internalType": "address",
                    "name": "newOwner",
                    "type": "address"
                }
            ],
            "name": "transferOwnership",
            "outputs": [],
            "stateMutability": "nonpayable",
            "type": "function"
        }
    ],
    "bytecode": "0x60a0604052600a6009553480156200001657600080fd5b50604051620024873803806200248783398181016040528101906200003c9190620003ba565b80806040518060400160405280601881526020017f556e6976657273616c204c6561726e696e6720546f6b656e00000000000000008152506040518060400160405280600381526020017f554c5400000000000000000000000000000000000000000000000000000000008152508160039080519060200190620000c292919062000265565b508060049080519060200190620000db92919062000265565b5050506000811162000124576040517f08c379a00000000000000000000000000000000000000000000000000000000081526004016200011b9062000462565b60405180910390fd5b806080818152505050506200014e620001426200019760201b60201c565b6200019f60201b60201c565b81600760006101000a81548173ffffffffffffffffffffffffffffffffffffffff021916908373ffffffffffffffffffffffffffffffffffffffff1602179055505050620004e9565b600033905090565b6000600660009054906101000a900473ffffffffffffffffffffffffffffffffffffffff16905081600660006101000a81548173ffffffffffffffffffffffffffffffffffffffff021916908373ffffffffffffffffffffffffffffffffffffffff1602179055508173ffffffffffffffffffffffffffffffffffffffff168173ffffffffffffffffffffffffffffffffffffffff167f8be0079c531659141344cd1fd0a4f28419497f9722a3daafe3b4186f6b6457e060405160405180910390a35050565b8280546200027390620004b3565b90600052602060002090601f016020900481019282620002975760008555620002e3565b82601f10620002b257805160ff1916838001178555620002e3565b82800160010185558215620002e3579182015b82811115620002e2578251825591602001919060010190620002c5565b5b509050620002f29190620002f6565b5090565b5b8082111562000311576000816000905550600101620002f7565b5090565b600080fd5b600073ffffffffffffffffffffffffffffffffffffffff82169050919050565b600062000347826200031a565b9050919050565b62000359816200033a565b81146200036557600080fd5b50565b60008151905062000379816200034e565b92915050565b6000819050919050565b62000394816200037f565b8114620003a057600080fd5b50565b600081519050620003b48162000389565b92915050565b60008060408385031215620003d457620003d362000315565b5b6000620003e48582860162000368565b9250506020620003f785828601620003a3565b9150509250929050565b600082825260208201905092915050565b7f45524332304361707065643a2063617020697320300000000000000000000000600082015250565b60006200044a60158362000401565b9150620004578262000412565b602082019050919050565b600060208201905081810360008301526200047d816200043b565b9050919050565b7f4e487b7100000000000000000000000000000000000000000000000000000000600052602260045260246000fd5b60006002820490506001821680620004cc57607f821691505b60208210811415620004e357620004e262000484565b5b50919050565b608051611f826200050560003960006105860152611f826000f3fe608060405234801561001057600080fd5b50600436106101375760003560e01c8063715018a6116100b8578063a9059cbb1161007c578063a9059cbb14610356578063cf5d57db14610386578063d1acf3aa146103a2578063d8c30700146103be578063dd62ed3e146103dc578063f2fde38b1461040c57610137565b8063715018a6146102c2578063771282f6146102cc5780638da5cb5b146102ea57806395d89b4114610308578063a457c2d71461032657610137565b806323b872dd116100ff57806323b872dd146101f6578063313ce56714610226578063355274ea14610244578063395093511461026257806370a082311461029257610137565b806304fb43681461013c57806306fdde031461016c578063095ea7b31461018a57806309a31d50146101ba57806318160ddd146101d8575b600080fd5b6101566004803603810190610151919061134c565b610428565b60405161016391906113b8565b60405180910390f35b610174610465565b604051610181919061145b565b60405180910390f35b6101a4600480360381019061019f9190611511565b6104f7565b6040516101b1919061156c565b60405180910390f35b6101c261051a565b6040516101cf91906115e6565b60405180910390f35b6101e0610540565b6040516101ed9190611610565b60405180910390f35b610210600480360381019061020b919061162b565b61054a565b60405161021d919061156c565b60405180910390f35b61022e610579565b60405161023b919061169a565b60405180910390f35b61024c610582565b6040516102599190611610565b60405180910390f35b61027c60048036038101906102779190611511565b6105aa565b604051610289919061156c565b60405180910390f35b6102ac60048036038101906102a791906116b5565b6105e1565b6040516102b99190611610565b60405180910390f35b6102ca610629565b005b6102d461063d565b6040516102e19190611610565b60405180910390f35b6102f2610643565b6040516102ff91906116f1565b60405180910390f35b61031061066d565b60405161031d919061145b565b60405180910390f35b610340600480360381019061033b9190611511565b6106ff565b60405161034d919061156c565b60405180910390f35b610370600480360381019061036b9190611511565b610776565b60405161037d919061156c565b60405180910390f35b6103a0600480360381019061039b919061170c565b610799565b005b6103bc60048036038101906103b79190611739565b6107ab565b005b6103c66108b4565b6040516103d39190611610565b60405180910390f35b6103f660048036038101906103f191906117c4565b6108c8565b6040516104039190611610565b60405180910390f35b610426600480360381019061042191906116b5565b61094f565b005b6008818051602081018201805184825260208301602085012081835280955050505050506000915054906101000a900467ffffffffffffffff1681565b60606003805461047490611833565b80601f01602080910402602001604051908101604052809291908181526020018280546104a090611833565b80156104ed5780601f106104c2576101008083540402835291602001916104ed565b820191906000526020600020905b8154815290600101906020018083116104d057829003601f168201915b5050505050905090565b6000806105026109d3565b905061050f8185856109db565b600191505092915050565b600760009054906101000a900473ffffffffffffffffffffffffffffffffffffffff1681565b6000600254905090565b6000806105556109d3565b9050610562858285610ba6565b61056d858585610c32565b60019150509392505050565b60006012905090565b60007f0000000000000000000000000000000000000000000000000000000000000000905090565b6000806105b56109d3565b90506105d68185856105c785896108c8565b6105d19190611894565b6109db565b600191505092915050565b60008060008373ffffffffffffffffffffffffffffffffffffffff1673ffffffffffffffffffffffffffffffffffffffff168152602001908152602001600020549050919050565b610631610eb3565b61063b6000610f31565b565b60055481565b6000600660009054906101000a900473ffffffffffffffffffffffffffffffffffffffff16905090565b60606004805461067c90611833565b80601f01602080910402602001604051908101604052809291908181526020018280546106a890611833565b80156106f55780601f106106ca576101008083540402835291602001916106f5565b820191906000526020600020905b8154815290600101906020018083116106d857829003601f168201915b5050505050905090565b60008061070a6109d3565b9050600061071882866108c8565b90508381101561075d576040517f08c379a00000000000000000000000000000000000000000000000000000000081526004016107549061195c565b60405180910390fd5b61076a82868684036109db565b60019250505092915050565b6000806107816109d3565b905061078e818585610c32565b600191505092915050565b6107a1610eb3565b8060098190555050565b600760009054906101000a900473ffffffffffffffffffffffffffffffffffffffff1673ffffffffffffffffffffffffffffffffffffffff1663d204c45e84836040518363ffffffff1660e01b815260040161080892919061197c565b600060405180830381600087803b15801561082257600080fd5b505af1158015610836573d6000803e3d6000fd5b5050505060088260405161084a91906119e8565b9081526020016040518091039020600081819054906101000a900467ffffffffffffffff168092919061087c906119ff565b91906101000a81548167ffffffffffffffff021916908367ffffffffffffffff160217905550506108af83600954610ff7565b505050565b6000806108bf610582565b90508091505090565b6000600160008473ffffffffffffffffffffffffffffffffffffffff1673ffffffffffffffffffffffffffffffffffffffff16815260200190815260200160002060008373ffffffffffffffffffffffffffffffffffffffff1673ffffffffffffffffffffffffffffffffffffffff16815260200190815260200160002054905092915050565b610957610eb3565b600073ffffffffffffffffffffffffffffffffffffffff168173ffffffffffffffffffffffffffffffffffffffff1614156109c7576040517f08c379a00000000000000000000000000000000000000000000000000000000081526004016109be90611aa2565b60405180910390fd5b6109d081610f31565b50565b600033905090565b600073ffffffffffffffffffffffffffffffffffffffff168373ffffffffffffffffffffffffffffffffffffffff161415610a4b576040517f08c379a0000000000000000000000000000000000000000000000000000000008152600401610a4290611b34565b60405180910390fd5b600073ffffffffffffffffffffffffffffffffffffffff168273ffffffffffffffffffffffffffffffffffffffff161415610abb576040517f08c379a0000000000000000000000000000000000000000000000000000000008152600401610ab290611bc6565b60405180910390fd5b80600160008573ffffffffffffffffffffffffffffffffffffffff1673ffffffffffffffffffffffffffffffffffffffff16815260200190815260200160002060008473ffffffffffffffffffffffffffffffffffffffff1673ffffffffffffffffffffffffffffffffffffffff168152602001908152602001600020819055508173ffffffffffffffffffffffffffffffffffffffff168373ffffffffffffffffffffffffffffffffffffffff167f8c5be1e5ebec7d5bd14f71427d1e84f3dd0314c0f7b2291e5b200ac8c7c3b92583604051610b999190611610565b60405180910390a3505050565b6000610bb284846108c8565b90507fffffffffffffffffffffffffffffffffffffffffffffffffffffffffffffffff8114610c2c5781811015610c1e576040517f08c379a0000000000000000000000000000000000000000000000000000000008152600401610c1590611c32565b60405180910390fd5b610c2b84848484036109db565b5b50505050565b600073ffffffffffffffffffffffffffffffffffffffff168373ffffffffffffffffffffffffffffffffffffffff161415610ca2576040517f08c379a0000000000000000000000000000000000000000000000000000000008152600401610c9990611cc4565b60405180910390fd5b600073ffffffffffffffffffffffffffffffffffffffff168273ffffffffffffffffffffffffffffffffffffffff161415610d12576040517f08c379a0000000000000000000000000000000000000000000000000000000008152600401610d0990611d56565b60405180910390fd5b610d1d83838361101e565b60008060008573ffffffffffffffffffffffffffffffffffffffff1673ffffffffffffffffffffffffffffffffffffffff16815260200190815260200160002054905081811015610da3576040517f08c379a0000000000000000000000000000000000000000000000000000000008152600401610d9a90611de8565b60405180910390fd5b8181036000808673ffffffffffffffffffffffffffffffffffffffff1673ffffffffffffffffffffffffffffffffffffffff16815260200190815260200160002081905550816000808573ffffffffffffffffffffffffffffffffffffffff1673ffffffffffffffffffffffffffffffffffffffff1681526020019081526020016000206000828254610e369190611894565b925050819055508273ffffffffffffffffffffffffffffffffffffffff168473ffffffffffffffffffffffffffffffffffffffff167fddf252ad1be2c89b69c2b068fc378daa952ba7f163c4a11628f55a4df523b3ef84604051610e9a9190611610565b60405180910390a3610ead848484611023565b50505050565b610ebb6109d3565b73ffffffffffffffffffffffffffffffffffffffff16610ed9610643565b73ffffffffffffffffffffffffffffffffffffffff1614610f2f576040517f08c379a0000000000000000000000000000000000000000000000000000000008152600401610f2690611e54565b60405180910390fd5b565b6000600660009054906101000a900473ffffffffffffffffffffffffffffffffffffffff16905081600660006101000a81548173ffffffffffffffffffffffffffffffffffffffff021916908373ffffffffffffffffffffffffffffffffffffffff1602179055508173ffffffffffffffffffffffffffffffffffffffff168173ffffffffffffffffffffffffffffffffffffffff167f8be0079c531659141344cd1fd0a4f28419497f9722a3daafe3b4186f6b6457e060405160405180910390a35050565b6110018282611028565b80600560008282546110139190611894565b925050819055505050565b505050565b505050565b611030610582565b81611039610540565b6110439190611894565b1115611084576040517f08c379a000000000000000000000000000000000000000000000000000000000815260040161107b90611ec0565b60405180910390fd5b61108e8282611092565b5050565b600073ffffffffffffffffffffffffffffffffffffffff168273ffffffffffffffffffffffffffffffffffffffff161415611102576040517f08c379a00000000000000000000000000000000000000000000000000000000081526004016110f990611f2c565b60405180910390fd5b61110e6000838361101e565b80600260008282546111209190611894565b92505081905550806000808473ffffffffffffffffffffffffffffffffffffffff1673ffffffffffffffffffffffffffffffffffffffff16815260200190815260200160002060008282546111759190611894565b925050819055508173ffffffffffffffffffffffffffffffffffffffff16600073ffffffffffffffffffffffffffffffffffffffff167fddf252ad1be2c89b69c2b068fc378daa952ba7f163c4a11628f55a4df523b3ef836040516111da9190611610565b60405180910390a36111ee60008383611023565b5050565b6000604051905090565b600080fd5b600080fd5b600080fd5b600080fd5b6000601f19601f8301169050919050565b7f4e487b7100000000000000000000000000000000000000000000000000000000600052604160045260246000fd5b61125982611210565b810181811067ffffffffffffffff8211171561127857611277611221565b5b80604052505050565b600061128b6111f2565b90506112978282611250565b919050565b600067ffffffffffffffff8211156112b7576112b6611221565b5b6112c082611210565b9050602081019050919050565b82818337600083830152505050565b60006112ef6112ea8461129c565b611281565b90508281526020810184848401111561130b5761130a61120b565b5b6113168482856112cd565b509392505050565b600082601f83011261133357611332611206565b5b81356113438482602086016112dc565b91505092915050565b600060208284031215611362576113616111fc565b5b600082013567ffffffffffffffff8111156113805761137f611201565b5b61138c8482850161131e565b91505092915050565b600067ffffffffffffffff82169050919050565b6113b281611395565b82525050565b60006020820190506113cd60008301846113a9565b92915050565b600081519050919050565b600082825260208201905092915050565b60005b8381101561140d5780820151818401526020810190506113f2565b8381111561141c576000848401525b50505050565b600061142d826113d3565b61143781856113de565b93506114478185602086016113ef565b61145081611210565b840191505092915050565b600060208201905081810360008301526114758184611422565b905092915050565b600073ffffffffffffffffffffffffffffffffffffffff82169050919050565b60006114a88261147d565b9050919050565b6114b88161149d565b81146114c357600080fd5b50565b6000813590506114d5816114af565b92915050565b6000819050919050565b6114ee816114db565b81146114f957600080fd5b50565b60008135905061150b816114e5565b92915050565b60008060408385031215611528576115276111fc565b5b6000611536858286016114c6565b9250506020611547858286016114fc565b9150509250929050565b60008115159050919050565b61156681611551565b82525050565b6000602082019050611581600083018461155d565b92915050565b6000819050919050565b60006115ac6115a76115a28461147d565b611587565b61147d565b9050919050565b60006115be82611591565b9050919050565b60006115d0826115b3565b9050919050565b6115e0816115c5565b82525050565b60006020820190506115fb60008301846115d7565b92915050565b61160a816114db565b82525050565b60006020820190506116256000830184611601565b92915050565b600080600060608486031215611644576116436111fc565b5b6000611652868287016114c6565b9350506020611663868287016114c6565b9250506040611674868287016114fc565b9150509250925092565b600060ff82169050919050565b6116948161167e565b82525050565b60006020820190506116af600083018461168b565b92915050565b6000602082840312156116cb576116ca6111fc565b5b60006116d9848285016114c6565b91505092915050565b6116eb8161149d565b82525050565b600060208201905061170660008301846116e2565b92915050565b600060208284031215611722576117216111fc565b5b6000611730848285016114fc565b91505092915050565b600080600060608486031215611752576117516111fc565b5b6000611760868287016114c6565b935050602084013567ffffffffffffffff81111561178157611780611201565b5b61178d8682870161131e565b925050604084013567ffffffffffffffff8111156117ae576117ad611201565b5b6117ba8682870161131e565b9150509250925092565b600080604083850312156117db576117da6111fc565b5b60006117e9858286016114c6565b92505060206117fa858286016114c6565b9150509250929050565b7f4e487b7100000000000000000000000000000000000000000000000000000000600052602260045260246000fd5b6000600282049050600182168061184b57607f821691505b6020821081141561185f5761185e611804565b5b50919050565b7f4e487b7100000000000000000000000000000000000000000000000000000000600052601160045260246000fd5b600061189f826114db565b91506118aa836114db565b9250827fffffffffffffffffffffffffffffffffffffffffffffffffffffffffffffffff038211156118df576118de611865565b5b828201905092915050565b7f45524332303a2064656372656173656420616c6c6f77616e63652062656c6f7760008201527f207a65726f000000000000000000000000000000000000000000000000000000602082015250565b60006119466025836113de565b9150611951826118ea565b604082019050919050565b6000602082019050818103600083015261197581611939565b9050919050565b600060408201905061199160008301856116e2565b81810360208301526119a38184611422565b90509392505050565b600081905092915050565b60006119c2826113d3565b6119cc81856119ac565b93506119dc8185602086016113ef565b80840191505092915050565b60006119f482846119b7565b915081905092915050565b6000611a0a82611395565b915067ffffffffffffffff821415611a2557611a24611865565b5b600182019050919050565b7f4f776e61626c653a206e6577206f776e657220697320746865207a65726f206160008201527f6464726573730000000000000000000000000000000000000000000000000000602082015250565b6000611a8c6026836113de565b9150611a9782611a30565b604082019050919050565b60006020820190508181036000830152611abb81611a7f565b9050919050565b7f45524332303a20617070726f76652066726f6d20746865207a65726f2061646460008201527f7265737300000000000000000000000000000000000000000000000000000000602082015250565b6000611b1e6024836113de565b9150611b2982611ac2565b604082019050919050565b60006020820190508181036000830152611b4d81611b11565b9050919050565b7f45524332303a20617070726f766520746f20746865207a65726f20616464726560008201527f7373000000000000000000000000000000000000000000000000000000000000602082015250565b6000611bb06022836113de565b9150611bbb82611b54565b604082019050919050565b60006020820190508181036000830152611bdf81611ba3565b9050919050565b7f45524332303a20696e73756666696369656e7420616c6c6f77616e6365000000600082015250565b6000611c1c601d836113de565b9150611c2782611be6565b602082019050919050565b60006020820190508181036000830152611c4b81611c0f565b9050919050565b7f45524332303a207472616e736665722066726f6d20746865207a65726f20616460008201527f6472657373000000000000000000000000000000000000000000000000000000602082015250565b6000611cae6025836113de565b9150611cb982611c52565b604082019050919050565b60006020820190508181036000830152611cdd81611ca1565b9050919050565b7f45524332303a207472616e7366657220746f20746865207a65726f206164647260008201527f6573730000000000000000000000000000000000000000000000000000000000602082015250565b6000611d406023836113de565b9150611d4b82611ce4565b604082019050919050565b60006020820190508181036000830152611d6f81611d33565b9050919050565b7f45524332303a207472616e7366657220616d6f756e742065786365656473206260008201527f616c616e63650000000000000000000000000000000000000000000000000000602082015250565b6000611dd26026836113de565b9150611ddd82611d76565b604082019050919050565b60006020820190508181036000830152611e0181611dc5565b9050919050565b7f4f776e61626c653a2063616c6c6572206973206e6f7420746865206f776e6572600082015250565b6000611e3e6020836113de565b9150611e4982611e08565b602082019050919050565b60006020820190508181036000830152611e6d81611e31565b9050919050565b7f45524332304361707065643a2063617020657863656564656400000000000000600082015250565b6000611eaa6019836113de565b9150611eb582611e74565b602082019050919050565b60006020820190508181036000830152611ed981611e9d565b9050919050565b7f45524332303a206d696e7420746f20746865207a65726f206164647265737300600082015250565b6000611f16601f836113de565b9150611f2182611ee0565b602082019050919050565b60006020820190508181036000830152611f4581611f09565b905091905056fea2646970667358221220043051cb865c55bfa3beecf8373848f243cbdca461943c7ba7de06e76bfe885a64736f6c63430008090033",
    "linkReferences": {},
    "deployedLinkReferences": {}
}